:1000000043C100005DC100005BC1000059C1000098
:1000100057C1000055C1000053C1000051C100008C
:100020004FC100004DC1000074C400003BC500007A
:1000300047C1000045C1000043C1000041C10000AC
:100040003FC100003DC100003BC1000039C10000BC
:100050001AC200002EC2000033C1000031C10000EE
:100060002FC100002DC100002BC1000029C10000DC
:1000700027C1000025C1000023C1000021C10000EC
:100080001FC100001DC100001BC10000E6C100002F
:1000900017C1000015C1000013C1000011C100000C
:1000A0000FC100000DC100000BC1000012011001C2
:1000B00002000008EB03442001000102DC010902F8
:1000C0003E00020100C032090400000102020100EA
:1000D000052400100104240206052406000107057A
:1000E00082030800FF09040100020A00000007055E
:1000F000040210000507058302100005040309042B
:1001000018034400650061006E0020004300610098
:100110006D0065007200610000001C034C0055007A
:1001200046004100200043004400430020004400FA
:1001300065006D006F0000006E616E00696E660004
:100140006364696E6F70737578585B656667454662
:100150004700616E006E66696E69747900CDCCCC23
:100160003D0AD7233C17B7D13877CC2B329595E68B
:10017000241FB14F0A000020410000C84200401C6B
:100180004620BCBE4CCA1B0E5AAEC59D7400407AB8
:1001900010F35A00A0724E18090010A5D4E8000010
:1001A000E87648170000E40B54020000CA9A3B00AE
:1001B0000000E1F505000080969800000040420F25
:1001C000000000A08601000000102700000000E8E9
:1001D00003000000006400000000000A00000000AE
:1001E000000100000000002C76D888DC674F08234F
:1001F000DFC1DFAE59E1B1B796E5E3E453C63AE6B5
:1002000051997696E8E6C28426EB898C9B62ED4094
:100210007C6FFCEFBC9C9F40F2BAA56FA5F49005E3
:100220005A2AF75C936B6CF9676DC11BFCE0E40D17
:1002300047FEF520E6B500D0ED902E03009435770B
:10024000050080841E080000204E0A000000C80C33
:10025000333333330F986E12831141EF8D2114899C
:100260003BE65516CFFEE6DB18D1844B381BF77CF6
:100270001D901DA4BBE424203284725E228100C93B
:10028000F124ECA1E53D270011241FBECFEFD5E0FE
:10029000DEBFCDBF11E0A0E0B1E0E4EEF6E202C0C7
:1002A00005900D92A834B107D9F711E0A8E4B1E0A8
:1002B00001C01D92AC36B107E1F730D00C94701339
:1002C0009FCE80E885BF85BF84B7877F84BF88E1E4
:1002D0000FB6F89480936000109260000FBE90E01B
:1002E00080E80FB6F89480936100909361000FBE90
:1002F000819A899A269A2E9A259A2D9A249A2C9A2E
:1003000084B5826084BD85B5856085BDEEE6F0E08C
:100310008081826080838BE987BDDEC2CF92DF92CD
:10032000EF92FF920F931F93DF93CF93CDB7DEB77A
:100330002F970FB6F894DEBF0FBECDBFC2DF10926D
:100340005901FE0131968FE0DF011D928A95E9F790
:100350008CE291E069E471E037D778948FEF93ED08
:10036000A0E381509040A040E1F700C000008091E0
:100370005901813031F480E091E069E471E00E943C
:10038000D1128CE291E08CD62CD592E0C92E80E47B
:10039000D82E8E010F5F1F4F80915A018130B1F42A
:1003A000809157018F5F80935701813041F481B371
:1003B0008C2581BB85B18D2585B91092570110928E
:1003C0005A0180917A00806480937A008CE291E0F7
:1003D0007FD6009709F1E0905801FF248CE291E06C
:1003E000ACD6F801EE0DFF1D808380915801F80115
:1003F000E80FF11D90819D3009F410828F3048F094
:10040000109258018CE191E069E471E00E94D112F0
:1004100003C08F5F809358018CE291E041D6E1D414
:10042000BBCF089508958CE291E0A4C58CE291E0E1
:10043000F4C4FC012089217080914801882331F4A3
:10044000222341F081E08093590104C0222311F45A
:10045000109259012093480108951F920F920FB6F0
:100460000F9211248F939F9380915B0190915C0177
:1004700090939700809396009F918F910F900FBE5D
:100480000F901F9018951F920F920FB60F92112484
:100490008F939F9380915D0190915E01909387006F
:1004A000809386009F918F910F900FBE0F901F90A9
:1004B00018951F920F920FB60F9211248F9381E01F
:1004C00080935A018F910F900FBE0F901F90189537
:1004D000923029F0933041F09130E9F417C02EE3C7
:1004E00030E0EEEBF0E01BC0813041F0813018F0DD
:1004F000823089F406C0ECEFF0E005C0E0E0F1E006
:1005000002C0EAE1F1E0249130E009C022E130E0EC
:10051000ECEAF0E004C020E030E0E0E0F0E0DA01F6
:100520001196FC93EE93C9010895482F592FFA01B3
:1005300080916A0190916B018617970718F4BC01AE
:1005400040E03CC061157105D9F78091E8008E77D5
:100550008093E800F5CF80916301882309F444C0BB
:100560008530F1F18091E80083FD3CC08091E80086
:1005700082FD30C08091E80080FF20C09091F300A0
:100580008091F200392F20E090E0822B932B06C05F
:1005900041914093F10061507040019661157105E1
:1005A00019F088309105A0F341E08830910509F0F9
:1005B00040E08091E8008E778093E8006115710536
:1005C00051F6442341F606C080916301882361F00F
:1005D000853061F08091E80082FFF6CF80E00895D9
:1005E00083E0089581E0089582E0089583E008950E
:1005F000E82FF92F80916A0190916B018617970778
:1006000018F4BC0140E03EC061157105D9F7809136
:10061000E8008E778093E800F5CF8091630188230E
:1006200009F446C0853009F43FC08091E80083FD9D
:100630003DC08091E80082FD31C08091E80080FFDC
:1006400021C09091F3008091F200392F20E090E0DA
:10065000822B932B07C044914093F1003196615057
:10066000704001966115710519F08830910598F375
:1006700041E08830910509F040E08091E8008E77F4
:100680008093E8006115710541F6442331F606C0F8
:1006900080916301882361F0853061F08091E800EA
:1006A00082FFF6CF80E0089583E0089581E0089509
:1006B00082E0089583E00895982F2CC0292F2F7091
:1006C0002093E900981739F07091EC002091ED002B
:1006D0005091F00003C0242F762F50E021FF19C065
:1006E0003091EB003E7F3093EB003091ED003D7F89
:1006F0003093ED003091EB0031603093EB0070935C
:10070000EC002093ED005093F0002091EE0027FFC5
:1007100008C09F5F973090F28F708093E90081E06E
:10072000089580E00895EF92FF920F931F93CF9367
:10073000DF93162FE82EE7017E01F92EE70100E096
:100740002AC09881992329F16B81E981FA812C8152
:10075000892F8F70873018F56295660F660F607C61
:10076000991F9927991F692B223010F096E001C03C
:1007700092E028E030E040E003C04F5F220F331FDB
:100780002E173F07D0F34295407F492B95DF8823F2
:1007900031F00F5F25960117A0F281E001C080E0E3
:1007A000DF91CF911F910F91FF90EF90089580916D
:1007B000640187FF13C004C0809163018823B9F0EE
:1007C0008091E80082FFF8CF8091E8008B778093DA
:1007D000E800089580916301882349F08091E80042
:1007E00080FFF8CF8091E8008E778093E80008952D
:1007F0008091E4009091E50044E62091EC0020FF18
:1008000026C02091E80020FD16C02091630122231C
:10081000A1F02530A1F02091EB0025FD12C0209120
:10082000E4003091E5002817390739F3442359F0E3
:100830004150C901E2CF80E0089582E0089583E04D
:10084000089581E0089584E0089580E0089520915E
:10085000E80022FFDACFF9CF0F931F93CF93DF93F6
:100860004BD052D0C8EDD0E088818F7788838881C3
:100870008068888388818F7D888319BC109263018A
:1008800010925F01109261011092600100EE10E081
:10089000F80180818B7F808388818160888380E0FC
:1008A00060E042E009DFE1EEF0E080818E7F80834E
:1008B000E2EEF0E0808181608083808188608083C7
:1008C000F80180818E7F8083888180618883DF91B9
:1008D000CF911F910F910895E8EDF0E080818F7E18
:1008E0008083E7EDF0E080818160808384E082BFD7
:1008F00081E080936201B0CFE8EDF0E080818E7FEF
:1009000080831092E20008951092DA001092E100C4
:1009100008951F920F920FB60F9211242F933F93B9
:100920004F935F936F937F938F939F93AF93BF93F7
:10093000EF93FF938091E10082FF0AC08091E20073
:1009400082FF06C08091E1008B7F8093E10048D256
:100950008091DA0080FF1DC08091D80080FF19C00F
:100960008091DA008E7F8093DA008091D90080FF39
:100970000CC080E189BD82E189BD09B400FEFDCFD4
:1009800081E0809363014DDD04C019BC10926301C6
:1009900049DD8091E10080FF18C08091E20080FF76
:1009A00014C08091E2008E7F8093E2008091E2008B
:1009B00080618093E2008091D80080628093D800AB
:1009C00019BC85E0809363010BD28091E10084FF24
:1009D0002DC08091E20084FF29C080E189BD82E1C1
:1009E00089BD09B400FEFDCF8091D8008F7D809332
:1009F000D8008091E1008F7E8093E1008091E20039
:100A00008F7E8093E2008091E20081608093E2001B
:100A100080915F01882321F48091E30087FF02C069
:100A200084E001C081E080936301DAD18091E1002C
:100A300083FF27C08091E20083FF23C08091E10003
:100A4000877F8093E10082E08093630110925F01D1
:100A50008091E1008E7F8093E1008091E2008E7FA3
:100A60008093E2008091E20080618093E20080E068
:100A700060E042E021DE8091F00088608093F00029
:100A8000AFD1FF91EF91BF91AF919F918F917F91E6
:100A90006F915F914F913F912F910F900FBE0F90EB
:100AA0001F9018951F920F920FB60F9211241F934B
:100AB0002F933F934F935F936F937F938F939F9366
:100AC000AF93BF93EF93FF931091E9001F70809154
:100AD000EC001092E9008091F000877F8093F00095
:100AE00078941BD01092E9008091F0008860809388
:100AF000F0001093E900FF91EF91BF91AF919F91AA
:100B00008F917F916F915F914F913F912F911F91A5
:100B10000F900FBE0F901F9018951F93DF93CF93E8
:100B2000CDB7DEB7AC970FB6F894DEBF0FBECDBF22
:100B3000E4E6F1E08091F100819321E0EC36F207E8
:100B4000C9F774DC8091E80083FF32C180916401B1
:100B500020916501253009F484C0263040F421300D
:100B6000A1F1213070F0233009F022C12EC02830CD
:100B700009F4F0C0293009F4FFC0263009F018C18B
:100B800093C0803821F0823809F012C108C08091EA
:100B9000600190916101992371F082600CC0809195
:100BA00068018F708093E9009091EB0081E095FFE0
:100BB00080E01092E9009091E800977F9093E80020
:100BC0008093F1001092F100D0C0882319F0823098
:100BD00009F0EEC090E08F719070009729F082309C
:100BE000910509F0E5C00BC080916601813009F0E4
:100BF000DFC0233009F080E0809361012CC0809138
:100C00006601882341F5209168012F7009F4D0C056
:100C10002093E9008091EB0080FF1DC08091650169
:100C2000833021F48091EB00806213C08091EB004F
:100C300080618093EB0081E090E002C0880F991FF3
:100C40002A95E2F78093EA001092EA008091EB0087
:100C500088608093EB001092E9008091E800877F24
:100C600087C0882309F0A4C0109166011F77809186
:100C7000E3008078812B8093E3008091E800877FF8
:100C80008093E80094DD8091E80080FFFCCF8091A4
:100C9000E30080688093E300112311F083E001C03A
:100CA00082E08093630184C08058823008F080C065
:100CB000809166019091670123E08C3D920791F548
:100CC00083E08C838AE28B835FB7F894DE0115960C
:100CD00080E090E04EE061E2E42FF0E060935700A6
:100CE000E49180FF03C0E295EF704F5FEF702E2F0D
:100CF00030E0EA3018F0295C3F4F02C0205D3F4FE2
:100D00002D933D9301968431910531F75FBF80911A
:100D1000E800877F8093E800CE0103966AE270E0E6
:100D200004DC12C060916801AE014F5F5F4FD0DB01
:100D3000BC01009709F43CC08091E800877F809354
:100D4000E80089819A8154DC8091E8008B77809358
:100D5000E8002EC0803861F58091E800877F80939D
:100D6000E80080915F018093F1008091E8008E7728
:100D70008093E8001CDD1CC08823D1F490916601AB
:100D80009230B0F48091E800877F8093E8009093E0
:100D90005F010DDD80915F01882321F48091E300E4
:100DA00087FF02C084E001C081E0809363013BDBE8
:100DB0008091E80083FF0AC08091E800877F8093DC
:100DC000E8008091EB0080628093EB00AC960FB658
:100DD000F894DEBF0FBECDBFCF91DF911F91089574
:100DE00008951F93809163018823A9F08091E90001
:100DF0008F709091EC0090FF02C010E801C010E0ED
:100E0000182B1092E9008091E80083FF01C085DE75
:100E10001F701093E9001F910895CF93DF93EC01A9
:100E20008091E80083FFA3C0888190E02091680151
:100E3000309169012817390709F099C0809165013F
:100E4000813269F0823220F4803209F090C03CC0D7
:100E5000823209F46BC0833209F089C07AC0809174
:100E60006401813A09F083C08091E800877F809314
:100E7000E8008091E80080FFFCCF8C899D89AE89D5
:100E8000BF898093F100292F3A2F4B2F55272093AC
:100E9000F1009D01442755272093F1008B2F9927BE
:100EA000AA27BB278093F100888D8093F100898D5C
:100EB0008093F1008A8D8093F1008091E8008E7715
:100EC0008093E80074DC53C080916401813209F0A2
:100ED0004EC08091E800877F8093E80005C0809134
:100EE0006301882309F443C08091E80082FFF7CFB3
:100EF0003091F1002091F1009091F1008091F1008A
:100F00003C8B2D8B9E8B8F8B8091F100888F8091F5
:100F1000F100898F8091F1008A8F8091E8008B77B2
:100F20008093E80044DCCE0162D121C0809164014D
:100F30008132E9F48091E800877F8093E80037DC14
:100F40008091660190916701998B888BCE0171DA4F
:100F50000EC080916401813251F48091E800877F56
:100F60008093E80024DCCE016091660140D1DF91DE
:100F7000CF910895CF93DF93EC014096FC018BE075
:100F8000DF011D928A95E9F782E08C83898783E0EF
:100F90008E87CE01019661E0C6DB882359F0CE0131
:100FA000069661E0C0DB882329F0CE010B9661E054
:100FB000BADB01C080E0DF91CF910895DF93CF933A
:100FC0000F92CDB7DEB7FC01809163018430F9F454
:100FD00024893589468957892115310541055105EF
:100FE000B1F081818F708093E9008091E80085FDE8
:100FF0000AC08091E8008E778093E8006983F8DB6F
:101000006981882329F46093F10080E001C082E0C7
:101010000F90CF91DF910895282FFB01848595854E
:10102000622FCCDF882319F02FEF3FEF02C020E0C2
:1010300030E0C9010895FC0180916301843051F5CD
:10104000248935894689578921153105410551057E
:1010500009F181818F708093E9009091F300809174
:10106000F200392F20E090E0822B932B0097A1F023
:101070009091E8008091E8008E778093E80095FDDC
:101080000DC0B6DB882359F49091E8009E779093C9
:10109000E800089582E0089580E0089580E00895D2
:1010A00020916301243099F4FC0124893589468913
:1010B0005789211531054105510549F021812F70CE
:1010C0002093E9002091E80020FF01C0B4CF0895EB
:1010D000FC0180916301843061F52489358946895A
:1010E0005789211531054105510519F186818F7008
:1010F0008093E9008091E80082FF1BC09091F3008B
:101100008091F200392F20E090E0822B932B009702
:1011100031F48091E8008B778093E8000AC0309129
:10112000F3002091F200932F80E030E0282B392B40
:1011300002C020E030E0C9010895FC018091630104
:10114000843099F5248935894689578921153105D7
:101150004105510551F186818F708093E90080919E
:10116000E80082FF22C09091F3008091F200392FB5
:1011700020E090E0822B932B009721F02091F1004A
:1011800030E002C02FEF3FEF9091F3008091F2002A
:10119000592F40E090E0842B952B009741F48091EB
:1011A000E8008B778093E80002C02FEF3FEFC90182
:1011B0000895FC0184859585C0DF9C0197FF02C0DE
:1011C0002EEF3FEFC9010895FB012EE0DB011D92D8
:1011D0002A95E9F723E023832CE038E03187208744
:1011E00029ED38E03387228795878487089508950D
:1011F000A3E1B0E0EEEFF8E00C9423116C017F87DF
:101200006E87FC0117821682838181FD04C059C359
:101210004C855D8504C01E010894211C311CF6011B
:101220009381EE85FF8593FD859193FF8191FF87E3
:10123000EE87882309F441C3853241F493FD8591FB
:1012400093FF8191FF87EE87853259F490E0B601D4
:101250004A8B5B8B0E94A5124A895B895D874C870C
:10126000D7CF10E0FF2400E00032B0F48B3269F0F9
:101270008C3228F4803251F0833271F40BC08D32FD
:1012800039F0803349F401602CC00260046029C049
:10129000086027C0006125C007FD2EC0282F2053FD
:1012A0002A3098F406FF08C0812F880F182F110FDD
:1012B000110F180F120F15C08F2D880FF82EFF0C6D
:1012C000FF0CF80EF20E00620CC08E3221F406FD07
:1012D000F4C2006406C08C3611F4006802C088367F
:1012E00059F4EE85FF8593FD859193FF8191FF87EA
:1012F000EE87882309F0B8CF982F9554933018F4CF
:101300000061805E06C0982F9556933008F091C119
:101310000F7E06FF16E06FE3E62EE022853619F415
:10132000F0E4EF2A07C0863619F420E8E22A02C06A
:1013300011111150E7FE06C01C3340F4912E939416
:1013400027E00BC0183030F4212F06C027E03CE323
:10135000932E03C027E017E09924CA0104969D87C5
:101360008C87FA016081718182819381A101092DAD
:10137000A1D75C016980262D30E0398B288B60FE77
:1013800003C0388933FF06C0E1FC06C0E2FE06C098
:1013900000E205C00DE203C00BE201C000E0888955
:1013A00099898C7090700097C1F1002311F084E04E
:1013B00001C083E08F1558F4F81AE3FC09C080E2FD
:1013C00090E0B6010E94A512FA94C9F701C0FF246B
:1013D000002329F0802F90E0B6010E94A512888991
:1013E00083FD03C00CE311E00EC008E311E00BC065
:1013F000A114B10409F0805290E0B6010E94A51238
:101400000F5F1F4F05C0AE2CBB2490E1A922BB2467
:10141000F8018491882361F74DC2E7FE0EC09A0C53
:10142000F889F4FF04C08A81813309F49A9419146D
:1014300054F5292D293050F52DC0E6FC2BC0812F05
:1014400090E08A159B054CF03CEFA3163FEFB306E6
:1014500024F080E8E82A01C01150112349F0E2E0AD
:10146000F0E0EC0FFD1FE10FF11D80818033A1F34F
:10147000E7FE10C0912E9394812F90E0A816B90634
:1014800044F41A1907C09924939404C098E0992E43
:1014900001C010E0E7FE07C01A141B043CF49501DC
:1014A0002F5F3F4F05C025E030E002C021E030E073
:1014B000002311F02F5F3F4F112329F0812F90E07F
:1014C0000196280F391F8F2D90E02817390714F443
:1014D000F21A01C0FF244E2C5524C201897090706D
:1014E000009749F406C080E290E0B6010E94A51280
:1014F000FA94FF20C1F7002329F0802F90E0B60175
:101500000E94A51243FC09C006C080E390E0B6012A
:101510000E94A512FA94FF20C1F7E7FE44C03501EE
:10152000B7FE02C06624772425010894411C511C93
:1015300046185708420C531CF501E919F1094F01EF
:10154000812F90E000271127081B190BFFEF6F1662
:10155000FFEF7F0621F48EE290E0B601F6D7A614E5
:10156000B70434F0861497041CF4F201808101C0A2
:1015700080E30894610871080894411C511C6016AE
:10158000710624F090E0B601E0D7E0CF6A147B0446
:1015900041F49A81963320F4953319F4F889F4FFD5
:1015A00081E390E043C08A81813311F02FEE622203
:1015B00090E0B601CAD7112379F08EE290E0B6012F
:1015C000C4D702E0F101E00FF11D0F5F808190E0D0
:1015D000B601BBD71150B1F744FE03C085E490E0DB
:1015E00002C085E690E0B601B0D7B7FC05C0A114F3
:1015F000B10441F464FE06C0B094A194B108B39460
:101600008DE201C08BE290E0B6019FD780E305C078
:101610008F5FE6EFFFEFAE0EBF1EFAE0AF16B1042C
:10162000BCF790E0B60191D7C501C096B6018DD741
:1016300041C1833631F0833789F0833509F055C0D5
:1016400021C09A012E5F3F4F3D872C87FA01808190
:101650008983310181E0A82EB12C12C09A012E5F3E
:101660003F4F3D872C87FA016080718006FF03C0E1
:10167000612F70E002C06FEF7FEFC30119D75C01EB
:101680000F7713C09A012E5F3F4F3D872C87FA01D9
:101690006080718006FF03C0612F70E002C06FEFB1
:1016A0007FEFC301FAD65C01006803FD1AC005C0D4
:1016B00080E290E0B60149D7FA948F2D90E0A81609
:1016C000B906B0F30EC0F30107FD859107FF8191C4
:1016D0003F0190E0B60139D7F110FA940894A108BF
:1016E000B108A114B10479F7E5C0843611F0893648
:1016F00059F507FF0BC09A012C5F3F4F3D872C87A0
:10170000FA0160817181828193810CC09A012E5F00
:101710003F4F3D872C87FA0160817181882777FDD3
:101720008095982F0F7697FF08C0909580957095BB
:1017300061957F4F8F4F9F4F0068A1012AE030E0F5
:101740006ED7982E921840C0853721F40F7E2AE07C
:1017500030E020C0097F8F36A9F0803720F488352B
:1017600009F0ABC00BC0803721F0883709F0A5C065
:1017700001C0006104FF09C0046007C004FF08C085
:10178000066006C028E030E005C020E130E002C07D
:1017900020E132E007FF0AC0CA0104969D878C87CA
:1017A000FA01608171818281938109C0CA01029628
:1017B0009D878C87FA016081718180E090E0A101B2
:1017C0002ED7982E92180F7706FF09C00E7F91161C
:1017D00030F404FF06C002FD04C00F7E02C0E92CF5
:1017E00001C0E12E802F90E004FF0CC0FE01E90D46
:1017F000F11D2081203311F4097E09C0E39402FF1A
:1018000006C004C086789070009709F0E394A02E7B
:10181000BB2403FD13C000FF0EC0EF1428F4192DE4
:101820001F0D1E19EF2C07C0192D05C080E290E096
:10183000B6018BD6E394EF14C8F304C0EF1410F490
:10184000FE1801C0FF24A4FE0EC080E390E0B601A4
:101850007CD6A2FE1DC0A1FE03C088E590E010C0AA
:1018600088E790E00DC0C50186789070009781F000
:10187000A1FC02C080E201C08BE207FD8DE290E096
:10188000B60163D605C080E390E0B6015ED6115084
:101890009116C8F39A94F101E90DF11D808190E051
:1018A000B60153D69920B1F705C080E290E0B601A9
:1018B0004CD6FA94FF20C9F7ABCCF60126813781CC
:1018C00002C02FEF3FEFC9016396E2E1D8C420FDCB
:1018D00009C0FC0123FD05C022FF02C0738362839F
:1018E000518340830895EF92FF920F931F9344FD1D
:1018F00010C046FD10C0DB01FC01AA0FBB1FEE1F8C
:10190000FF1F1094D1F76A0F7B1F8E1F9F1F31E0BE
:1019100003C033E001C034E0660F771F881F991FB2
:101920003150D1F77B018C01E20EF11C011D111D1C
:10193000A8019701B701CA011F910F91FF90EF9085
:101940000895EF92FF920F931F93CF93DF938C0133
:10195000C801B9D5EC0197FD07C084D50097C1F740
:101960007E01CE01B80140D6CE01CDB7DEB7E6E0AC
:1019700092C4A1E0B0E0EEEBFCE06BC46C014B0163
:101980005A01122FA0D58B3219F08D3261F41068F4
:101990000894810891088114910409F471C0C6016A
:1019A00092D597FD6DC0312F3D7F232F207321F5F8
:1019B000803311F50894810891088114910409F489
:1019C0004BC0C60139837FD5398197FD45C0326050
:1019D000883711F0883571F43064089481089108D3
:1019E00081149104C9F1C60139836DD5398197FFFE
:1019F00003C032C036FF3061EE24FF248701282F58
:101A00002053283088F034FD09C02A3068F036FFB2
:101A100005C02F7D422F4151463028F0B601398351
:101A2000E3D5398116C02750C801B701432F398348
:101A30005ADF7B018C01398132600894810891085A
:101A40008114910461F0C60139833DD5398197FF36
:101A5000D6CF31FD04C014C0EE24FF24870137FF28
:101A600008C010950095F094E094E11CF11C011D54
:101A7000111DC501B801A701232F29DF81E001C095
:101A800080E02196ECE001C4A0E2B0E0E9E4FDE0F2
:101A9000DCC35C016B018A0179019E012F5F3F4F1E
:101AA00080E2F90111928A95E9F7F501938080E0CF
:101AB00090E0B0E08824A0E061E070E0F70193FCE2
:101AC000659093FE61907F01662009F47FC0F62D3A
:101AD000FE3511F4009751F14A2F50E0481759078D
:101AE00044F4462D4D3551F14D3219F4882001F161
:101AF00003C0882009F4B62D462D46954695469597
:101B0000F901E40FF11D462D47702B0102C0440C72
:101B1000551C4A95E2F78080842880826B1659F024
:101B20006B1610F46394E8CF6A94E6CFA1E004C08A
:101B30008824839401C088240196C0CF882019F09E
:101B40008E8180628E83AA2351F0CE018196FE01A0
:101B50003196208120952193E817F907D1F7992430
:101B600093943E010894611C711C01C09924C50125
:101B7000AAD497FD23C0282F269526952695F301F4
:101B8000E20FF11D208130E0AC014770507002C0BF
:101B9000359527954A95E2F720FD03C0B50124D578
:101BA0000DC00115110519F0F80181938F010894FA
:101BB000C108D108C114D104C9F602C0992031F47A
:101BC0000115110529F0F801108202C0EE24FF244E
:101BD000C701A096E0E155C32F923F924F925F92CA
:101BE0006F927F928F929F92AF92BF92CF92DF922D
:101BF000FF920F931F93CF93DF935C01EB011A01C8
:101C000062D48C018B3219F08D3271F402C0FF2442
:101C100002C0F0E8FF2E219709F4F0C0C50153D4AB
:101C20008C0197FF02C0EAC0FF24C80123D4893683
:101C30009105D1F08E36910569F513C0219759F0C1
:101C4000C50141D46C0197FD06C014D4881671F00B
:101C5000C601B501C9D481E00835180709F0CEC026
:101C60000FC002E511E002C005E511E0F8010F5FC9
:101C70001F4F8490882011F7E1E005351E0729F0F9
:101C800060E070E080E89FE7AEC060E070E080EC6C
:101C90009FE7A9C0442455243201CC24DD24202F01
:101CA00020532A3030F5F2E0FF2A4F2D50E0CA01D0
:101CB00088709070F2FE06C0009709F50894C11C68
:101CC000D11C1DC0009719F00894C108D108C301A8
:101CD000B20140E208DE2B013C0188E9481689E99F
:101CE000580689E9680689E1780648F0E4E0FE2AAA
:101CF00006C02E3F59F4F3FC09C0F8E0FF2A2197F3
:101D000029F0C501E0D38C0197FFC9CFF1FE76C061
:101D1000053611F00534B9F5219709F46FC0C501F6
:101D2000D2D38C0197FD6AC08B3221F08D3241F401
:101D300080E1F82A219709F461C0C501C4D38C0160
:101D4000C801C0978A30910508F058C088249924AA
:101D5000B401882777FD8095982F202F205340E2EB
:101D6000C2DD4B01219739F0C501ADD38C01C0977D
:101D70008A30910568F3F4FE04C090948194910830
:101D80009394C80CD91C209729F017FD03C0C801F3
:101D9000B5012AD4C301B20165D1D7FE07C0C1E79E
:101DA000D1E0D094C194D108D39402C0C9E8D1E065
:101DB000E6E0AE2EB12C00E210E008C0FE01259155
:101DC0003591459154918BD1C01AD10AC016D106D4
:101DD000A8F7169507950894A108B108A114B104B5
:101DE00011F02497F3CFF7FC90582114310441F0FF
:101DF000F101608371838283938302C080E001C01C
:101E000081E0DF91CF911F910F91FF90DF90CF90F4
:101E1000BF90AF909F908F907F906F905F904F900A
:101E20003F902F900895A1E0B0E0E8E1FFE00DC2FF
:101E30006C015B013A01FC0117821682EE24FBC0A3
:101E4000812F90E00FD3009719F0C6017ADDF3C01F
:101E5000153241F4F50103FD359103FF31915F0126
:101E6000353251F4C6012FD397FDF1C0181709F48C
:101E7000E2C0B601B9D3EDC03A3241F403FD359169
:101E800003FF31915F01FF24F39401C0FF24442438
:101E900055240EC0F2E0FF2AB20180E090E040E25B
:101EA00022DD2B01F50103FD359103FF31915F0127
:101EB000232F20532A3070F3F1FE04C04114510443
:101EC00021F4C7C044244A94542C383619F03C36C7
:101ED00099F40AC0F50103FD359103FF31915F01CB
:101EE000383651F4F8E0FF2A44E0F42AF50103FD06
:101EF000359103FF31915F01332309F4AAC080E4D7
:101F000091E0632F70E03983BDD23981009709F4E5
:101F1000A0C08F2DF0FC08C0F3010081118142E0C8
:101F200050E0640E751E02C000E010E03E3649F439
:101F3000F6014681578160E070E0C8012F2DC7DCB3
:101F40007AC03336B1F481FD03C0A1E04A2E512C92
:101F5000C601B9D297FD7BC00115110519F0F80132
:101F600081938F010894410851084114510481F76D
:101F700060C03B3551F4C601B201A801950184DD72
:101F80005C01009709F055C04FC0C6013983D9DC08
:101F9000398197FD5CC03F36C9F1303738F43436AB
:101FA00091F13936A9F13835C9F52AC0333751F0E6
:101FB000343718F4303791F523C0353721F13837ED
:101FC00069F51EC0C6017FD24C0197FD13C04AD2ED
:101FD000009721F0C401B60107D30CC0011511050B
:101FE00019F0F80181928F010894410851084114B9
:101FF000510441F701151105E1F0F801108219C0F3
:10200000F0E4FF2A05C040E2F42A02C050E1F52ABC
:10201000C601B201A8012F2DACDC04C0C601B2017B
:10202000A801DADD882329F4F6018381807379F42D
:1020300010C0F0FEE394F6010381F50103FD159154
:1020400003FF11915F01112309F0FACE02C0EE20C7
:1020500019F02E2D30E002C02FEF3FEFC90121967D
:10206000E0E10FC1E89409C097FB3EF4909580959C
:10207000709561957F4F8F4F9F4F9923A9F0F92F4E
:1020800096E9BB279395F695879577956795B795CC
:10209000F111F8CFFAF4BB0F11F460FF1BC06F5FB2
:1020A0007F4F8F4F9F4F16C0882311F096E911C0C4
:1020B000772321F09EE8872F762F05C0662371F0E5
:1020C00096E8862F70E060E02AF09A95660F771FF9
:1020D000881FDAF7880F9695879597F908950BD0A2
:1020E00078C069D028F06ED018F0952309F05AC056
:1020F0005FC01124A2C07ED0A0F3959FD1F3950FAD
:1021000050E0551F629FF001729FBB27F00DB11D7B
:10211000639FAA27F00DB11DAA1F649F6627B00D0B
:10212000A11D661F829F2227B00DA11D621F739FF4
:10213000B00DA11D621F839FA00D611D221F749F02
:102140003327A00D611D231F849F600D211D822F49
:10215000762F6A2F11249F5750408AF0E1F0882390
:102160004AF0EE0FFF1FBB1F661F771F881F91509D
:102170005040A9F79E3F510570F014C05EC05F3F0C
:10218000ECF3983EDCF3869577956795B795F795D0
:10219000E7959F5FC1F7FE2B880F911D9695879558
:1021A00097F9089597F99F6780E870E060E00895D7
:1021B0009FEF80EC089500240A941616170618065F
:1021C0000906089500240A9412161306140605063B
:1021D0000895092E0394000C11F4882352F0BB0FCC
:1021E00040F4BF2B11F460FF04C06F5F7F4F8F4F2F
:1021F0009F4F089557FD9058440F551F59F05F3F6A
:1022000071F04795880F97FB991F61F09F3F79F018
:1022100087950895121613061406551FF2CF46959A
:10222000F1DF08C0161617061806991FF1CF86951C
:102230007105610508940895E894BB276627772700
:10224000CB0197F908952F923F924F925F926F9230
:102250007F928F929F92AF92BF92CF92DF92EF9236
:10226000FF920F931F93CF93DF93CDB7DEB7CA1BB7
:10227000DB0B0FB6F894DEBF0FBECDBF09942A88E2
:10228000398848885F846E847D848C849B84AA848A
:10229000B984C884DF80EE80FD800C811B81AA8117
:1022A000B981CE0FD11D0FB6F894DEBF0FBECDBFE2
:1022B000ED010895283008F027E03327DA01990F5F
:1022C000311D87FD916000966105710539F432601A
:1022D0002E5F3D9330E32A95E1F708959F3F30F05C
:1022E00080387105610509F03C5F3C5F3D9391309A
:1022F00008F08068911DDF93CF931F930F93FF9297
:10230000EF92192F987F9695E92F96959695E90F5C
:10231000FF27E951FE4F99273327EE24FF24A70119
:10232000E70105900894079428F4360FE71EF81E7D
:10233000491F511D660F771F881F991F0694A1F72B
:102340000590079428F4E70EF81E491F561FC11D7B
:10235000770F881F991F661F0694A1F705900794B1
:1023600028F4F80E491F561FC71FD11D880F991F4B
:10237000661F771F0694A1F70590079420F4490F74
:10238000561FC71FD81F990F661F771F881F0694F7
:10239000A9F784911095177041F0D695C795579578
:1023A0004795F794E7941A95C1F7EDE8F1E0689442
:1023B0001590159135916591959105907FE27395F2
:1023C000E118F10A430B560BC90BD009C0F7E10C19
:1023D000F11E431F561FC91FD01D7EF4703311F428
:1023E0008A95E6CFE894015030F0080F0AF40027F0
:1023F000021708F4202F2395022F7A3328F079E36F
:102400007D932A95E9F710C07D932A9589F6069465
:1024100097956795379517951794E118F10A430B2F
:10242000560BC90BD00998F023957E9173957A339A
:1024300008F070E37C932013B8F77E9170617D9370
:1024400030F0839571E37D9370E32A95E1F71124D1
:10245000EF90FF900F911F91CF91DF91992787FD0A
:1024600090950895911139C1803219F089508550A5
:10247000D0F708959111089581548A5108F4805E2F
:10248000855A0895FC010590061621F00020D9F721
:10249000C00108953197CF010895FC010590615066
:1024A00070400110D8F7809590958E0F9F1F08956A
:1024B000FC016150704001900110D8F78095909513
:1024C0008E0F9F1F0895CF93DF93EC013B8130FF68
:1024D00036C036FF09C03F7B3B838E819F810196CA
:1024E0009F838E832A8129C032FF0FC0E881F98142
:1024F0008081992787FD9095009719F430623B837E
:102500001EC03196F983E88311C0EA85FB85CE01B0
:10251000099597FF0BC02B813FEF8F3F930711F475
:1025200080E101C080E2822B8B8309C02E813F8134
:102530002F5F3F4F3F832E83282F30E002C02FEFC5
:102540003FEFC901DF91CF9108950F931F93CF9370
:10255000DF938C01EB018B8181FF1BC082FF0DC0DB
:102560002E813F818C819D812817390764F4E88191
:10257000F9810193F983E88306C0E885F985802F06
:102580000995009731F48E819F8101969F838E83F8
:1025900002C00FEF1FEFC801DF91CF911F910F9184
:1025A0000895EF92FF920F931F93CF93DF937C01D7
:1025B000EB018B8181FF11C000E010E008C0E885CD
:1025C000F985BE010995009711F00FEF1FEFF70194
:1025D00081917F01882399F702C00FEF1FEFC80197
:1025E000CDB7DEB7E6E057CEFB01238120FF13C055
:1025F00026FD11C03FEF8F3F930769F0828320646F
:102600002F7D2383268137812150304037832683D5
:10261000282F30E002C02FEF3FEFC9010895FA01E3
:10262000AA27283051F1203181F1E8946F936E7F11
:102630006E5F7F4F8F4F9F4FAF4FB1E03ED0B4E002
:102640003CD0670F781F891F9A1FA11D680F791F43
:102650008A1F911DA11D6A0F711D811D911DA11D54
:1026600020D009F468943F912AE0269F1124301964
:10267000305D3193DEF6CF010895462F4770405DFF
:102680004193B3E00FD0C9F7F6CF462F4F70405DAE
:102690004A3318F0495D31FD4052419302D0A9F709
:1026A000EACFB4E0A6959795879577956795BA9503
:1026B000C9F700976105710508959B01AC010A2EC9
:1026C00006945795479537952795BA95C9F7620FA0
:1026D000731F841F951FA01D0895992788270895AB
:0426E000F894FFCF9C
:1026E4004D61696E7320506F7765726564207374F1
:1026F4006570706572205620310D0A000D0A52581B
:10270400204F766572666C6F770D0A0000831000A7
:102714000001041000000182080000010000000014
:082724000000000000000000AD
:00000001FF
